{
  "contractName": "Crowdsale",
  "abi": [
    {
      "constant": true,
      "inputs": [],
      "name": "owner",
      "outputs": [
        {
          "name": "",
          "type": "address"
        }
      ],
      "payable": false,
      "stateMutability": "view",
      "type": "function"
    },
    {
      "constant": true,
      "inputs": [],
      "name": "myToken",
      "outputs": [
        {
          "name": "",
          "type": "address"
        }
      ],
      "payable": false,
      "stateMutability": "view",
      "type": "function"
    },
    {
      "constant": true,
      "inputs": [],
      "name": "queue",
      "outputs": [
        {
          "name": "",
          "type": "address"
        }
      ],
      "payable": false,
      "stateMutability": "view",
      "type": "function"
    },
    {
      "inputs": [],
      "payable": false,
      "stateMutability": "nonpayable",
      "type": "constructor"
    },
    {
      "anonymous": false,
      "inputs": [
        {
          "indexed": false,
          "name": "_amount",
          "type": "uint256"
        }
      ],
      "name": "TokenPurchased",
      "type": "event"
    },
    {
      "anonymous": false,
      "inputs": [
        {
          "indexed": false,
          "name": "_amount",
          "type": "uint256"
        }
      ],
      "name": "TokenRefunded",
      "type": "event"
    },
    {
      "constant": true,
      "inputs": [
        {
          "name": "startTime",
          "type": "uint256"
        },
        {
          "name": "endTime",
          "type": "uint256"
        }
      ],
      "name": "setTimes",
      "outputs": [],
      "payable": false,
      "stateMutability": "view",
      "type": "function"
    },
    {
      "constant": false,
      "inputs": [],
      "name": "checkTime",
      "outputs": [
        {
          "name": "timeLeft",
          "type": "uint256"
        }
      ],
      "payable": false,
      "stateMutability": "nonpayable",
      "type": "function"
    },
    {
      "constant": false,
      "inputs": [
        {
          "name": "amount",
          "type": "uint256"
        }
      ],
      "name": "setInitialAmount",
      "outputs": [],
      "payable": false,
      "stateMutability": "nonpayable",
      "type": "function"
    },
    {
      "constant": true,
      "inputs": [
        {
          "name": "amount",
          "type": "uint256"
        }
      ],
      "name": "mintNewTokens",
      "outputs": [],
      "payable": false,
      "stateMutability": "view",
      "type": "function"
    },
    {
      "constant": true,
      "inputs": [
        {
          "name": "amount",
          "type": "uint256"
        }
      ],
      "name": "burnUnSoldTokens",
      "outputs": [],
      "payable": false,
      "stateMutability": "view",
      "type": "function"
    },
    {
      "constant": false,
      "inputs": [
        {
          "name": "rate",
          "type": "uint256"
        }
      ],
      "name": "setTokenPrice",
      "outputs": [],
      "payable": false,
      "stateMutability": "nonpayable",
      "type": "function"
    },
    {
      "constant": false,
      "inputs": [],
      "name": "buyToken",
      "outputs": [],
      "payable": true,
      "stateMutability": "payable",
      "type": "function"
    },
    {
      "constant": false,
      "inputs": [],
      "name": "refundToken",
      "outputs": [],
      "payable": true,
      "stateMutability": "payable",
      "type": "function"
    },
    {
      "constant": false,
      "inputs": [],
      "name": "joinQueue",
      "outputs": [],
      "payable": false,
      "stateMutability": "nonpayable",
      "type": "function"
    }
  ],
  "bytecode": "0x608060405234801561001057600080fd5b5033600560006101000a81548173ffffffffffffffffffffffffffffffffffffffff021916908373ffffffffffffffffffffffffffffffffffffffff16021790555060006002819055506112c7806100696000396000f3006080604052600436106100ba576000357c0100000000000000000000000000000000000000000000000000000000900463ffffffff16806322434836146100bf5780632ba270bf146100f6578063310c6226146101235780635cb732be146101505780635ecac9d41461015a5780636a61e5fc146101715780638da5cb5b1461019e578063a4821719146101f5578063b0efc329146101ff578063b8fcf9371461022c578063e0c6190d14610283578063e10d29ee146102ae575b600080fd5b3480156100cb57600080fd5b506100f46004803603810190808035906020019092919080359060200190929190505050610305565b005b34801561010257600080fd5b50610121600480360381019080803590602001909291905050506103d4565b005b34801561012f57600080fd5b5061014e6004803603810190808035906020019092919050505061066b565b005b610158610836565b005b34801561016657600080fd5b5061016f610904565b005b34801561017d57600080fd5b5061019c600480360381019080803590602001909291905050506109fa565b005b3480156101aa57600080fd5b506101b3610ae5565b604051808273ffffffffffffffffffffffffffffffffffffffff1673ffffffffffffffffffffffffffffffffffffffff16815260200191505060405180910390f35b6101fd610b0b565b005b34801561020b57600080fd5b5061022a60048036038101908080359060200190929190505050610e6d565b005b34801561023857600080fd5b506102416110a2565b604051808273ffffffffffffffffffffffffffffffffffffffff1673ffffffffffffffffffffffffffffffffffffffff16815260200191505060405180910390f35b34801561028f57600080fd5b506102986110c8565b6040518082815260200191505060405180910390f35b3480156102ba57600080fd5b506102c36111b5565b604051808273ffffffffffffffffffffffffffffffffffffffff1673ffffffffffffffffffffffffffffffffffffffff16815260200191505060405180910390f35b600560009054906101000a900473ffffffffffffffffffffffffffffffffffffffff1673ffffffffffffffffffffffffffffffffffffffff163373ffffffffffffffffffffffffffffffffffffffff161415156103ca576040517f08c379a000000000000000000000000000000000000000000000000000000000815260040180806020018281038252601b8152602001807f746869732066756e6374696f6e206973206f776e6572206f6e6c79000000000081525060200191505060405180910390fd5b8191508090505050565b600560009054906101000a900473ffffffffffffffffffffffffffffffffffffffff1673ffffffffffffffffffffffffffffffffffffffff163373ffffffffffffffffffffffffffffffffffffffff16141515610499576040517f08c379a000000000000000000000000000000000000000000000000000000000815260040180806020018281038252601b8152602001807f746869732066756e6374696f6e206973206f776e6572206f6e6c79000000000081525060200191505060405180910390fd5b60005442101580156104ad57506001544211155b15156104b857600080fd5b600081101580156105895750600460009054906101000a900473ffffffffffffffffffffffffffffffffffffffff1673ffffffffffffffffffffffffffffffffffffffff166318160ddd6040518163ffffffff167c0100000000000000000000000000000000000000000000000000000000028152600401602060405180830381600087803b15801561054a57600080fd5b505af115801561055e573d6000803e3d6000fd5b505050506040513d602081101561057457600080fd5b81019080805190602001909291905050508111155b151561059457600080fd5b600460009054906101000a900473ffffffffffffffffffffffffffffffffffffffff1673ffffffffffffffffffffffffffffffffffffffff16631e05dde7826040518263ffffffff167c010000000000000000000000000000000000000000000000000000000002815260040180828152602001915050602060405180830381600087803b15801561062557600080fd5b505af1158015610639573d6000803e3d6000fd5b505050506040513d602081101561064f57600080fd5b8101908080519060200190929190505050151561066857fe5b50565b600560009054906101000a900473ffffffffffffffffffffffffffffffffffffffff1673ffffffffffffffffffffffffffffffffffffffff163373ffffffffffffffffffffffffffffffffffffffff16141515610730576040517f08c379a000000000000000000000000000000000000000000000000000000000815260040180806020018281038252601b8152602001807f746869732066756e6374696f6e206973206f776e6572206f6e6c79000000000081525060200191505060405180910390fd5b600054421015801561074457506001544211155b151561074f57600080fd5b6000811015151561075f57600080fd5b600460009054906101000a900473ffffffffffffffffffffffffffffffffffffffff1673ffffffffffffffffffffffffffffffffffffffff1663179d375c826040518263ffffffff167c010000000000000000000000000000000000000000000000000000000002815260040180828152602001915050602060405180830381600087803b1580156107f057600080fd5b505af1158015610804573d6000803e3d6000fd5b505050506040513d602081101561081a57600080fd5b8101908080519060200190929190505050151561083357fe5b50565b600054421015801561084a57506001544211155b151561085557600080fd5b61086a346002546111db90919063ffffffff16565b6002819055503373ffffffffffffffffffffffffffffffffffffffff166108fc61089f600354346111f490919063ffffffff16565b9081150290604051600060405180830381858888f193505050501580156108ca573d6000803e3d6000fd5b507f715508c3f219fc1f59f52284da262d8ca4e7fa00b10f3ee0aa04f06a00debc42346040518082815260200191505060405180910390a1565b600054421015801561091857506001544211155b151561092357600080fd5b600660009054906101000a900473ffffffffffffffffffffffffffffffffffffffff1673ffffffffffffffffffffffffffffffffffffffff16638f807f6b336040518263ffffffff167c0100000000000000000000000000000000000000000000000000000000028152600401808273ffffffffffffffffffffffffffffffffffffffff1673ffffffffffffffffffffffffffffffffffffffff168152602001915050600060405180830381600087803b1580156109e057600080fd5b505af11580156109f4573d6000803e3d6000fd5b50505050565b600560009054906101000a900473ffffffffffffffffffffffffffffffffffffffff1673ffffffffffffffffffffffffffffffffffffffff163373ffffffffffffffffffffffffffffffffffffffff16141515610abf576040517f08c379a000000000000000000000000000000000000000000000000000000000815260040180806020018281038252601b8152602001807f746869732066756e6374696f6e206973206f776e6572206f6e6c79000000000081525060200191505060405180910390fd5b600081118015610ad0575060005442105b1515610adb57600080fd5b8060038190555050565b600560009054906101000a900473ffffffffffffffffffffffffffffffffffffffff1681565b600080544210158015610b2057506001544211155b1515610b2b57600080fd5b600660009054906101000a900473ffffffffffffffffffffffffffffffffffffffff1673ffffffffffffffffffffffffffffffffffffffff16631e2231436040518163ffffffff167c0100000000000000000000000000000000000000000000000000000000028152600401602060405180830381600087803b158015610bb157600080fd5b505af1158015610bc5573d6000803e3d6000fd5b505050506040513d6020811015610bdb57600080fd5b810190808051906020019092919050505073ffffffffffffffffffffffffffffffffffffffff163373ffffffffffffffffffffffffffffffffffffffff16148015610ce957506001600660009054906101000a900473ffffffffffffffffffffffffffffffffffffffff1673ffffffffffffffffffffffffffffffffffffffff16633e3c9eae6040518163ffffffff167c0100000000000000000000000000000000000000000000000000000000028152600401602060405180830381600087803b158015610ca957600080fd5b505af1158015610cbd573d6000803e3d6000fd5b505050506040513d6020811015610cd357600080fd5b810190808051906020019092919050505060ff16115b1515610cf457600080fd5b610d096003543461122790919063ffffffff16565b9050600034111515610d1757fe5b600460009054906101000a900473ffffffffffffffffffffffffffffffffffffffff1673ffffffffffffffffffffffffffffffffffffffff1663a9059cbb33836040518363ffffffff167c0100000000000000000000000000000000000000000000000000000000028152600401808373ffffffffffffffffffffffffffffffffffffffff1673ffffffffffffffffffffffffffffffffffffffff16815260200182815260200192505050602060405180830381600087803b158015610ddc57600080fd5b505af1158015610df0573d6000803e3d6000fd5b505050506040513d6020811015610e0657600080fd5b810190808051906020019092919050505050610e2d8160025461124290919063ffffffff16565b6002819055507fcab6f8fa2c780e69c142674d8c8238d5acfde69d0f05fbddc5c796eca4229b6d816040518082815260200191505060405180910390a150565b600560009054906101000a900473ffffffffffffffffffffffffffffffffffffffff1673ffffffffffffffffffffffffffffffffffffffff163373ffffffffffffffffffffffffffffffffffffffff16141515610f32576040517f08c379a000000000000000000000000000000000000000000000000000000000815260040180806020018281038252601b8152602001807f746869732066756e6374696f6e206973206f776e6572206f6e6c79000000000081525060200191505060405180910390fd5b6000544211151515610fd2576040517f08c379a00000000000000000000000000000000000000000000000000000000081526004018080602001828103825260348152602001807f696e697469616c20616d6f756e742068617320746f206265207365742062656681526020017f6f72652063726f776473616c652073746172747300000000000000000000000081525060400191505060405180910390fd5b600460009054906101000a900473ffffffffffffffffffffffffffffffffffffffff1673ffffffffffffffffffffffffffffffffffffffff16639bbf5703826040518263ffffffff167c010000000000000000000000000000000000000000000000000000000002815260040180828152602001915050602060405180830381600087803b15801561106357600080fd5b505af1158015611077573d6000803e3d6000fd5b505050506040513d602081101561108d57600080fd5b81019080805190602001909291905050505050565b600460009054906101000a900473ffffffffffffffffffffffffffffffffffffffff1681565b6000600560009054906101000a900473ffffffffffffffffffffffffffffffffffffffff1673ffffffffffffffffffffffffffffffffffffffff163373ffffffffffffffffffffffffffffffffffffffff1614151561118f576040517f08c379a000000000000000000000000000000000000000000000000000000000815260040180806020018281038252601b8152602001807f746869732066756e6374696f6e206973206f776e6572206f6e6c79000000000081525060200191505060405180910390fd5b6001544210156111a557426001540390506111b2565b600090506111b1611260565b5b90565b600660009054906101000a900473ffffffffffffffffffffffffffffffffffffffff1681565b60008282111515156111e957fe5b818303905092915050565b60008082840290506000841480611215575082848281151561121257fe5b04145b151561121d57fe5b8091505092915050565b600080828481151561123557fe5b0490508091505092915050565b600080828401905083811015151561125657fe5b8091505092915050565b600560009054906101000a900473ffffffffffffffffffffffffffffffffffffffff1673ffffffffffffffffffffffffffffffffffffffff16ff00a165627a7a7230582049de41c8244c3c7f3bfc6fc556f34a2597e395586b481a22db9bf2f1849d15f50029",
  "source": "pragma solidity 0.4.24;\r\n\r\nimport './Queue.sol';\r\nimport './Token.sol';\r\nimport './utils/SafeMath.sol';\r\n\r\n/**\r\n * @title Crowdsale\r\n * @dev Contract that deploys `Token.sol`\r\n * Is timelocked, manages buyer queue, updates balances on `Token.sol`\r\n */\r\n\r\ncontract Crowdsale {\r\n\t// YOUR CODE HERE\r\n\tusing SafeMath for uint256;\r\n\t//variables\r\n\tuint256 timeStart;\r\n\tuint256 timeEnd;\r\n\r\n\tuint256 amountSold;\r\n\r\n\tuint256 tokenRate; //for 1 wei\r\n\tToken public myToken;\r\n\r\n\taddress public owner;\r\n\tQueue public queue;\r\n\r\n\t//constructor\r\n\tconstructor() public {\r\n\t\towner = msg.sender;\r\n\t\tamountSold = 0;\r\n\t\t/* queue = Queue();\r\n\t\tmyToken = Token(); */\r\n\t}\r\n\r\n\t//Events\r\n\tevent TokenPurchased(uint256 _amount);\r\n\tevent TokenRefunded(uint256 _amount);\r\n\r\n\t//modifiers\r\n\tmodifier onlyOwner{\r\n\t\trequire(msg.sender == owner, \"this function is owner only\");\r\n\t\t_;\r\n\t}\r\n\r\n\tmodifier withinTime{\r\n\t\trequire(now >= timeStart && now <= timeEnd);\r\n\t\t_;\r\n\t}\r\n\r\n\tfunction setTimes(uint256 startTime, uint256 endTime) public view onlyOwner {\r\n\t\tstartTime = startTime;\r\n\t\tendTime = endTime;\r\n\t}\r\n\r\n\tfunction checkTime() public onlyOwner returns (uint256 timeLeft) {\r\n\t\tif (now < timeEnd)\r\n\t\t\ttimeLeft = timeEnd - now;\r\n\t\telse {\r\n\t\t\ttimeLeft = 0;\r\n\t\t\tendContract();\r\n\t\t}\r\n\t}\r\n\r\n\tfunction setInitialAmount(uint256 amount) public onlyOwner {\r\n\t\trequire(now <= timeStart, \"initial amount has to be set before crowdsale starts\");\r\n\t\tmyToken.setTokenSupply(amount);\r\n\t}\r\n\r\n\tfunction mintNewTokens(uint256 amount) public view onlyOwner withinTime{\r\n\t\trequire(amount >= 0);\r\n\t\tassert(myToken.addToken(amount));\r\n\t}\r\n\r\n\tfunction burnUnSoldTokens(uint256 amount) public view onlyOwner withinTime{\r\n\t\trequire(amount >= 0 && amount <= myToken.totalSupply());\r\n\t\tassert(myToken.subtractToken(amount));\r\n\t}\r\n\r\n\tfunction setTokenPrice(uint256 rate) public onlyOwner{\r\n\t\t//rate is the amount of tokens to be exchanged for 1 wei\r\n\t\trequire(rate > 0 && now < timeStart);\r\n\t\ttokenRate = rate;\r\n\t}\r\n\r\n\tfunction buyToken() public payable withinTime{\r\n\t\trequire(msg.sender == queue.getFirst() && queue.qsize() > 1);\r\n\t\tuint256 amount = msg.value.div(tokenRate);\r\n\t\tassert(msg.value >0);\r\n\t\tmyToken.transfer(msg.sender, amount);\r\n\t\tamountSold = amountSold.add(amount);\r\n\t\temit TokenPurchased(amount);\r\n\t}\r\n\r\n\tfunction refundToken() public payable withinTime{\r\n\r\n\t\tamountSold = amountSold.sub(msg.value);\r\n\t\tmsg.sender.transfer(msg.value.mul(tokenRate));\r\n\t\temit TokenRefunded(msg.value);\r\n\t}\r\n\r\n\tfunction joinQueue() public withinTime{\r\n\t\tqueue.enqueue(msg.sender);\r\n\t}\r\n\r\n\tfunction endContract() private {\r\n\t\tselfdestruct(owner);\r\n\t}\r\n}\r\n",
  "sourcePath": "C:\\Users\\phangjunyu\\Desktop\\Blockchain\\sp18-midterm-p1\\contracts\\Crowdsale.sol",
  "compiler": {
    "name": "solc",
    "version": "0.4.24+commit.e67f0147.Emscripten.clang"
  },
  "schemaVersion": "2.0.1",
  "updatedAt": "2018-08-30T17:24:26.618Z"
}