{
  "contractName": "Queue",
  "abi": [
    {
      "inputs": [],
      "payable": false,
      "stateMutability": "nonpayable",
      "type": "constructor"
    },
    {
      "anonymous": false,
      "inputs": [
        {
          "indexed": false,
          "name": "add",
          "type": "address"
        }
      ],
      "name": "Dequeued",
      "type": "event"
    },
    {
      "anonymous": false,
      "inputs": [
        {
          "indexed": false,
          "name": "add",
          "type": "address"
        }
      ],
      "name": "Enqueued",
      "type": "event"
    },
    {
      "constant": true,
      "inputs": [],
      "name": "qsize",
      "outputs": [
        {
          "name": "",
          "type": "uint8"
        }
      ],
      "payable": false,
      "stateMutability": "view",
      "type": "function"
    },
    {
      "constant": true,
      "inputs": [],
      "name": "empty",
      "outputs": [
        {
          "name": "",
          "type": "bool"
        }
      ],
      "payable": false,
      "stateMutability": "view",
      "type": "function"
    },
    {
      "constant": true,
      "inputs": [],
      "name": "getFirst",
      "outputs": [
        {
          "name": "",
          "type": "address"
        }
      ],
      "payable": false,
      "stateMutability": "view",
      "type": "function"
    },
    {
      "constant": true,
      "inputs": [],
      "name": "checkPlace",
      "outputs": [
        {
          "name": "",
          "type": "uint8"
        }
      ],
      "payable": false,
      "stateMutability": "view",
      "type": "function"
    },
    {
      "constant": false,
      "inputs": [],
      "name": "checkTime",
      "outputs": [],
      "payable": false,
      "stateMutability": "nonpayable",
      "type": "function"
    },
    {
      "constant": false,
      "inputs": [],
      "name": "dequeue",
      "outputs": [],
      "payable": false,
      "stateMutability": "nonpayable",
      "type": "function"
    },
    {
      "constant": false,
      "inputs": [
        {
          "name": "addr",
          "type": "address"
        }
      ],
      "name": "enqueue",
      "outputs": [],
      "payable": false,
      "stateMutability": "nonpayable",
      "type": "function"
    }
  ],
  "bytecode": "0x608060405260056000806101000a81548160ff021916908360ff16021790555034801561002b57600080fd5b506001600060016101000a81548160ff021916908360ff16021790555060008060026101000a81548160ff021916908360ff160217905550600f600260006101000a81548160ff021916908360ff160217905550610add8061008e6000396000f300608060405260043610610083576000357c0100000000000000000000000000000000000000000000000000000000900463ffffffff1680631e223143146100885780633e3c9eae146100df5780638f807f6b14610110578063957908d114610153578063ad7d59fc1461016a578063e0c6190d1461019b578063f2a75fe4146101b2575b600080fd5b34801561009457600080fd5b5061009d6101e1565b604051808273ffffffffffffffffffffffffffffffffffffffff1673ffffffffffffffffffffffffffffffffffffffff16815260200191505060405180910390f35b3480156100eb57600080fd5b506100f4610344565b604051808260ff1660ff16815260200191505060405180910390f35b34801561011c57600080fd5b50610151600480360381019080803573ffffffffffffffffffffffffffffffffffffffff16906020019092919050505061036b565b005b34801561015f57600080fd5b5061016861052c565b005b34801561017657600080fd5b5061017f610776565b604051808260ff1660ff16815260200191505060405180910390f35b3480156101a757600080fd5b506101b06109d2565b005b3480156101be57600080fd5b506101c7610a83565b604051808215151515815260200191505060405180910390f35b60003073ffffffffffffffffffffffffffffffffffffffff1663f2a75fe46040518163ffffffff167c0100000000000000000000000000000000000000000000000000000000028152600401602060405180830381600087803b15801561024757600080fd5b505af115801561025b573d6000803e3d6000fd5b505050506040513d602081101561027157600080fd5b81019080805190602001909291905050501515156102f7576040517f08c379a000000000000000000000000000000000000000000000000000000000815260040180806020018281038252600e8152602001807f717565756520697320656d70747900000000000000000000000000000000000081525060200191505060405180910390fd5b600160008060019054906101000a900460ff1660ff16815260200190815260200160002060000160009054906101000a900473ffffffffffffffffffffffffffffffffffffffff16905090565b60008060019054906101000a900460ff16600060029054906101000a900460ff1603905090565b6005600060019054906101000a900460ff16600060029054906101000a900460ff160360ff16101515610406576040517f08c379a000000000000000000000000000000000000000000000000000000000815260040180806020018281038252601d8152602001807f717565756520686173206d6178696d756d206c696d6974206f6620352e00000081525060200191505060405180910390fd5b6001600060028282829054906101000a900460ff160192506101000a81548160ff021916908360ff16021790555080600160008060029054906101000a900460ff1660ff16815260200190815260200160002060000160006101000a81548173ffffffffffffffffffffffffffffffffffffffff021916908373ffffffffffffffffffffffffffffffffffffffff16021790555042600160008060029054906101000a900460ff1660ff168152602001908152602001600020600101819055507f2707b5a576846705179bceb0a603004417af6c39ce042ce6c7c2e57ce345d63481604051808273ffffffffffffffffffffffffffffffffffffffff1673ffffffffffffffffffffffffffffffffffffffff16815260200191505060405180910390a150565b60003073ffffffffffffffffffffffffffffffffffffffff1663f2a75fe46040518163ffffffff167c0100000000000000000000000000000000000000000000000000000000028152600401602060405180830381600087803b15801561059257600080fd5b505af11580156105a6573d6000803e3d6000fd5b505050506040513d60208110156105bc57600080fd5b8101908080519060200190929190505050151515610642576040517f08c379a000000000000000000000000000000000000000000000000000000000815260040180806020018281038252600e8152602001807f717565756520697320656d70747900000000000000000000000000000000000081525060200191505060405180910390fd5b600160008060019054906101000a900460ff1660ff16815260200190815260200160002060000160009054906101000a900473ffffffffffffffffffffffffffffffffffffffff169050600160008060019054906101000a900460ff1660ff168152602001908152602001600020600080820160006101000a81549073ffffffffffffffffffffffffffffffffffffffff0219169055600182016000905550506001600060018282829054906101000a900460ff160192506101000a81548160ff021916908360ff1602179055507f8e96e93335899bce2d2bd10c4d34b53a1bebf56bdc98dbf8ed937e7b2cff229181604051808273ffffffffffffffffffffffffffffffffffffffff1673ffffffffffffffffffffffffffffffffffffffff16815260200191505060405180910390a150565b6000803073ffffffffffffffffffffffffffffffffffffffff1663f2a75fe46040518163ffffffff167c0100000000000000000000000000000000000000000000000000000000028152600401602060405180830381600087803b1580156107dd57600080fd5b505af11580156107f1573d6000803e3d6000fd5b505050506040513d602081101561080757600080fd5b810190808051906020019092919050505015151561088d576040517f08c379a000000000000000000000000000000000000000000000000000000000815260040180806020018281038252600e8152602001807f717565756520697320656d70747900000000000000000000000000000000000081525060200191505060405180910390fd5b600060019054906101000a900460ff1690505b600060029054906101000a900460ff1660ff168160ff161115156109cd573373ffffffffffffffffffffffffffffffffffffffff16600160008360ff16815260200190815260200160002060000160009054906101000a900473ffffffffffffffffffffffffffffffffffffffff1673ffffffffffffffffffffffffffffffffffffffff161415610933578091506109ce565b600060029054906101000a900460ff1660ff168160ff16141515156109c0576040517f08c379a000000000000000000000000000000000000000000000000000000000815260040180806020018281038252601d8152602001807f596f75722061646472657373206973206e6f7420696e2071756575652e00000081525060200191505060405180910390fd5b80806001019150506108a0565b5b5090565b600f4203600160008060019054906101000a900460ff1660ff168152602001908152602001600020600101541015610a81573073ffffffffffffffffffffffffffffffffffffffff1663957908d16040518163ffffffff167c0100000000000000000000000000000000000000000000000000000000028152600401600060405180830381600087803b158015610a6857600080fd5b505af1158015610a7c573d6000803e3d6000fd5b505050505b565b60008060029054906101000a900460ff1660ff16600060019054906101000a900460ff1660ff1611159050905600a165627a7a7230582096a3ff3656412446eaca1087129cbe985c85a330acc0271da6858841ad0d4b080029",
  "source": "pragma solidity 0.4.24;\r\n\r\n/**\r\n * @title Queue\r\n * @dev Data structure contract used in `Crowdsale.sol`\r\n * Allows buyers to line up on a first-in-first-out basis\r\n * See this example: http://interactivepython.org/courselib/static/pythonds/BasicDS/ImplementingaQueueinPython.html\r\n */\r\n\r\ncontract Queue {\r\n\t/* State variables */\r\n\t// YOUR CODE HERE\r\n\tuint8 size = 5;\r\n\tuint8 first;\r\n\tuint8 last;\r\n\tmapping(uint256 => Buyer) queue;\r\n\tuint8 time;\r\n\tstruct Buyer{\r\n\t\taddress add;\r\n\t\tuint256 timeStart;\r\n\t}\r\n\r\n\r\n\t/* Add events */\r\n\t// YOUR CODE HERE\r\n\tevent Dequeued(address add);\r\n\tevent Enqueued(address add);\r\n\r\n\t/* Add constructor */\r\n\t// YOUR CODE HERE\r\n\tconstructor() public{\r\n\t\tfirst = 1;\r\n\t\tlast = 0;\r\n\t\ttime = 15; //can only be first in line for 15 seconds\r\n\t}\r\n\r\n\t/* Returns the number of people waiting in line */\r\n\tfunction qsize() public view returns(uint8) {\r\n\t\t// YOUR CODE HERE\r\n\t\treturn last - first;\r\n\t}\r\n\r\n\t/* Returns whether the queue is empty or not */\r\n\tfunction empty() public view returns(bool) {\r\n\t\t// YOUR CODE HERE\r\n\t\treturn (first <= last);\r\n\t}\r\n\r\n\t/* Returns the address of the person in the front of the queue */\r\n\tfunction getFirst() public view returns(address) {\r\n\t\t// YOUR CODE HERE\r\n\t\trequire (!this.empty(), \"queue is empty\");\r\n\t\treturn queue[first].add;\r\n\t}\r\n\r\n\t/* Allows `msg.sender` to check their position in the queue */\r\n\tfunction checkPlace() public view returns(uint8) {\r\n\t\t// YOUR CODE HERE\r\n\t\trequire (!this.empty(), \"queue is empty\");\r\n\t\tfor (uint8 i = first; i <= last; i++){\r\n\t\t\tif (queue[i].add == msg.sender)\r\n\t\t\t\treturn i;\r\n\t\t\trequire(i != last, \"Your address is not in queue.\");\r\n\t\t}\r\n\t}\r\n\r\n\t/* Allows anyone to expel the first person in line if their time\r\n\t * limit is up\r\n\t */\r\n\tfunction checkTime() public {\r\n\t\t// YOUR CODE HERE\r\n\t\tif (queue[first].timeStart < now-15){\r\n\t\t\tthis.dequeue();\r\n\t\t}\r\n\t}\r\n\r\n\t/* Removes the first person in line; either when their time is up or when\r\n\t * they are done with their purchase\r\n\t */\r\n\tfunction dequeue() public {\r\n\t\t// YOUR CODE HERE\r\n\t\trequire(!this.empty(), \"queue is empty\"); //not empty queue\r\n\t\taddress temp = queue[first].add;\r\n\t\tdelete(queue[first]);\r\n\t\tfirst += 1;\r\n\t\temit Dequeued(temp);\r\n\t}\r\n\r\n\t/* Places `addr` in the first empty position in the queue */\r\n\tfunction enqueue(address addr) public {\r\n\t\t// YOUR CODE HERE\r\n\t\trequire(last - first < 5, \"queue has maximum limit of 5.\");\r\n\t\tlast += 1;\r\n\t\tqueue[last].add = addr;\r\n\t\tqueue[last].timeStart = now;\r\n\t\temit Enqueued(addr);\r\n\t}\r\n}\r\n",
  "sourcePath": "C:\\Users\\phangjunyu\\Desktop\\Blockchain\\sp18-midterm-p1\\contracts\\Queue.sol",
  "compiler": {
    "name": "solc",
    "version": "0.4.24+commit.e67f0147.Emscripten.clang"
  },
  "schemaVersion": "2.0.1",
  "updatedAt": "2018-08-30T17:24:26.626Z"
}